S123F00010CEC07F8EE010863EA70386FFA702863AA70386FFA702863EA703BDF0D586A007
S123F020C65B8D6DBDF0D586018D378E03008D4C86028D2E8E04008D438E0400E68900FBD9
S123F040F7EFC154545454F7EFC2EC8900FCFDEFA0E68900FEF7EFA2E68900FFF7EFA37EA6
S123F0600300C64F8D2B8EF0E8860A443402A684E60130028D1B35024A26F1398D574FC697
S123F0804334028D25A784300135024C26F38D45393404C6FF8D2C3504F7E012B7E010C4FB
S123F0A0FEF7E012CA03F7E012393404C6008D133504F7E012C4FDF7E012CA03B6E010F7A2
S123F0C0E012393404C63AF7E0113504F7E010C63EF7E01139C65F8DD14D2BFB854027F7C3
S115F0E085012601397EF80000530057A05B014B205F4E
S123F1007EF1CC7EF27E7EF2FD7EF3077EF3197EF4007EF4208EEFD0108EF10086073402B0
S123F120ECA1ED81A6A0A78035024A26F18EEFD0108EDE0086153402A684E6A4A7A0E780CF
S123F14035024A26F1CC8081FDEFA4CC8283FDEFA6CC0005FDEFA8FDEFAAFDEFACFDEFAE26
S123F1604FB7EFB0B7EFB1B7EFB2CC0001FDCC0B7ECD00340286FFC63AF7E011B7E010C63B
S123F1803EF7E0113502393402863EB7E01386FFB7E012863AB7E01386FFB7E012863EB7F0
S123F1A0E013860020D18DCBC65FF7E012B7E010C4FEF7E012CA03F7E01239F7E012C4FD90
S123F1C0F7E012CA03B6E010F7E012397DEFB226037EF4488D5986208DCCBDF3178DA8C605
S123F1E05F8DD8858026FAC643F7E012108E0040340886E01F8BC4FDD712CA039610D71200
S123F200A780C4FDD712CA039610D712A780C4FDD712CA039610D712A780C4FDD712CA03F2
S123F2209610D712A780313F26CC35087EF2E710830005260DF6EFB034108EEFA858EC858C
S123F2403510BDF349BDF187C65FBDF1BB4D2BFA482AF7BDF173C64FB6EFC0BDF1AAC653C2
S123F260B6EFBFBDF1AAC657B6EFBEBDF1AAC65BB6EFBDBDF1AAC64B8601BDF1AA397DEF86
S123F280B226037EF4598DA78630BDF1A6BDF317BDF187C65FBDF1BB4D2BFA850827F6BD23
S123F2A0F173C643F7E012108E0040340886E01F8BA680C4FE9710D712CA03D712A680C4B2
S123F2C0FE9710D712CA03D712A680C4FE9710D712CA03D712A680C4FE9710D712CA03D79C
S123F2E012313F26CC3508BDF187C65FBDF1BB4D2BFA850127037EF42C1CFE5F397DEFB206
S123F30026037EEFD620F2A603108EEFA46DA62B187FEFB27EF4601239A603108EEFA4E63E
S123F320A62B067FEFB27EF4677FEFB273EFB281052505C60F1A0139B7EFB08EEFA4E68609
S123F340C47FF7EFB15F1CFE393402B6EFC2263C3502FDEFB4B6EFB1B7EFB37FEFB6B6EFCF
S123F360A2F6EFA33DFDEFB78D33FCEFBAFDEFBE7FEFB64FF6EFA3FDEFB78D21B6EFBB8A3A
S123F380A0B7EFBDB6EFB54CB7EFC0393502FDEFBFB6EFB1B7EFBE86E0B7EFBD39CC0000B7
S123F3A0FDEFB9FDEFBB8D4B252C7DEFB62B1278EFB879EFB779EFB67CEFBC20E98D342503
S123F3C015FCEFB4B3EFB7FDEFB4B6EFB3B2EFB6B7EFB37CEFBB7DEFBC271774EFB676EF6A
S123F3E0B776EFB87AEFBC78EFBB79EFBA79EFB920CB39FCEFB4B3EFB7B6EFB3B2EFB639A7
S123F400A603108EEFA46DA62B022062BDF173C65FBDF1BB854027037EF345C6801A01395E
S123F420A603108EEFA46DA62BE22049C647BDF1BB1A01393424108EEFA4BFEFC5E603F7BF
S123F440EFC4E6A5E70335A48DEABDEFD03415BEEFC5F6EFC4E70335958DD9BDEFD320EDAA
S11FF4608DD2BDEFD920E68DCBBDEFDC20DF8DC4BDEFDF20D88DBDBDEFE220D126
S121F800F863F89AF8E0F8DAF8EEF905F92EF8F8F92CF93AF99EF99AF959F96EF9A37D
S123F826B7FFD6B7FFD8B7FFDAB7FFDDB7FFDFC664B680005A26FA10CEC6FFFCE01D8603ED
S123F846B7E000B7E002B7E004B7E006860FB7E000B7E002B7E0067FE014B6E018108EFF16
S123F866478EDFC0C610A6A0A7805A26F9C60C6FE25A26FB8EF863AF0A86D0A7E41F438E3D
S123F886E004BFDFE0BDF9148EFFFFBFDFE38EFE9DBDF92E8EFF1CBDF92C8D38810D27F41F
S123F8A6845FC6FF8EFE52A1842708E18427E5300320F4AD980120DC8D43BDF96E29D56E0A
S123F8C6841F343B8D37BDF96E29C9AD8420C57DDFE227068D04847F20253410BEDFE0A671
S123F8E6844724FBA60135903404E69FDFE0C501358434128EFF448D2F35928D00862034AC
S123F90614BEDFE0E684575724FAA70135943412BEDFE08603A7848615A784A601A6018694
S123F926FFB7DFE235928DCAA6848DD33001A684810426F6398D98340280302B1181092F69
S123F9460A81112B0981162E05800732613935021A02398DE029F9484848481F898DD62941
S123F966EF3404ABE01F89398DE929E434028DE3350229DC1F013944444444840F8B30814D
S123F986391023FF7A8B077EF905A68434028DE7350220E78DF430018DF07EF90334061F56
S123F9A6108D061F988D02358634028DCA35028DCA39BDF9038DB129201F12BDF8F81F21E7
S123F9C68DDBBDF903A6A48DCF8D882811810D2708812F2705312120E239313F20DDA7A42A
S123F9E6A1A427F1BDF9038658BDF9058607BDF90520E28EFF1EBDF92CAE4A8DA0BDF90399
S123FA061F318D99BDF903AE488D92BDF903AE448D8BBDF903AE468D84BDF903A641BDF9C1
S123FA2692BDF903A642BDF992BDF903A643BDF992BDF903A6C4BDF992BDF903BDF8F8394D
S123FA461F43AE4A301FAF4ABCDFE3260BB6DFE5A7848EFFFFBFDFE38D997EF89ABDF903AA
S123FA6610CEC6FF7FE0148643B7E0188EFFFF301F121226FA860FB7E0188D36B6E0188595
S123FA860126F98601B7E01A8D28868CB7E0188D218EC000B6E01885022610850126F5B6D0
S123FAA6E018852C1027C5527EF89AB6E01BA78020E2BDFABBBDFABEBDFAC13910CEC6FF20
S123FAC68EFB37BFDE20BDF00CB6E00F8540260D8EFAFEBDF92EB6E00F854027F9BDF0099F
S123FAE6CC00018EC000BDF0005D1027C50C8EFB1DBDF92E6E9FFFFE0D0A0A57414954499C
S123FB064E4720464F52204449534B20544F205350494E205550040D0A4552524F522052FB
S123FB26454144494E4720424F4F5453545241500401010600062000007ECD03BDF903BD3F
S123FB46F96E29686FE23410BDF903BDF96E295A3410AC6225523001AFE48612BDF905ECE2
S123FB66E4A3622706108300202302C620E764BDF8F88653BDF9058631BDF905CB031F9824
S123FB86BDF992AE62BDF9A3EB62EB63EB84A680BDF9926A6426F5531F98BDF992AF62AC3A
S123FBA6E426BC8614BDF90532623263397FDFE2BDF903327E8611BDF905BDF8D58153263F
S123FBC6F9BDF8D581392741813126EE6FE4BDF959292CEBE4E7E48002A761BDF96E291F69
S123FBE61F10EBE4E7E4ABE4A7E4BDF959291AEBE4E7E46A612704A78020EF6CE427BB8648
S123FC0658BDF9058607BDF905326286FFB7DFE239BDF903BDF96E291F1F12BDF903BDF9F0
S123FC266E291530013410BDF903BDF9592907A7A010ACE426F93262396FE26FE2BDF90373
S123FC46BDF96E29713410BDF903BDF96E29653410AC62295DBDF90310AE621F20E36434C2
S123FC6604ABE0A7A010ACE425F110AE621F20E3643402EBE0E8A0271F3404BDF8F8303F25
S123FC86BDF9A3BDF903AE64BDF9A3BDF9033502BDF992BDF8EE261A10ACE425D0862BBDBF
S123FCA6F905BDF8EE260B10AE626C6526AD6C6426A932623262326239BDF9038EFFFFBC0F
S123FCC6DFE32708BEDFE3B6DFE5A784BDF96E290CBFDFE3A684B7DFE5863FA78439BDF9A6
S123FCE6038EFFFFBCDFE3270EBEDFE3B6DFE5A7848EFFFFBFDFE339327ABDF903BDF96EC4
S123FD062934BDF903AFE4BDF96E292ABDF903AF62BDF96E2920BDF903AF64AEE410AE84E2
S123FD2610AC64260BBDF8F8BDF9A3BDF8EE26063001AC6226E73266398641BDF905BDF93E
S123FD4603A641BDF992BDF903BDF9592902A741398642BDF905BDF903A642BDF992BDF931
S123FD6603BDF9592902A742398643BDF905BDF903A6C4BDF992BDF903BDF9592902A7C4CD
S123FD86398644BDF905BDF903A643BDF992BDF903BDF9592902A743398655BDF905BDF94F
S123FDA603AE48BDF9A3BDF903BDF96E2902AF48398658BDF905BDF903AE44BDF9A3BDF95C
S123FDC603BDF96E2902AF44398659BDF905BDF903AE46BDF9A3BDF903BDF96E2902AF46FE
S123FDE639327EBDF903BDF96E295E1F10C4F01F02BDF903BDF96E29501F10C30010C4F09C
S123FE061F01AFE41F212004ACE4273DBDF8EE2638BDF8F8BDF9A3BDF901C610A680BDF95D
S123FE2692BDF903C1092603BDF9035A26EEBDF9013010C610A68081202504817E230286EC
S123FE462EBDF9055A26EE20BF32623901FD3F02FD5703FD6F04FD8715FD9F18FDB719FD78
S123FE66CF42FCBF44FDE745F8BE46FCFE47F8C748F00049FC174AF8CA4CFBB34DF9B8505B
S123FE86FB4251FC3F52F9F953FB3F55FA6357FAC258FCE4FFFFFF0D0A0A50542D4D4F4EE8
S123FEA620312E34312D5335202D2035394B2028505436392D35290D0A0A466F7220757343
S123FEC66520776974682061205049412049444520696E7465726661636520616E642053D3
S123FEE64B2A444F530D0A206F7220464C45582077697468206120636F6C6420737461723D
S123FF06742061646472657373206F662024434430300D0A0A043E040D0A205043202020AC
S123FF265350202020555320202020582020202059202020412020422044502043430D0AC7
S123FF4604F8C9F8C9F8C9F8C9F8C9FA46FFFFFFFF6E9FDFC26E9FDFC46E9FDFC66E9FDF96
S108FF66C86E9FDFCA14
S111FFF2FF57FF5BFF5FFF63FF67F826F826EB
S9030000FC
